S0170000666C61736877617265335F657468312E737265634C
S11300003804FE1F6D2500007124000077250000D0
S1130010772500007725000077250000772500006C
S1130020000000000000000000000000110B0000B0
S11300307725000000000000290B0000850B00005C
S1070040F92000009F
S113004403000000540000000700000078000000D2
S113005400000090000000900001000D6004FE1FE9
S1130064F0B2FE1F00000003F8B2FE1FFCB2FE1F34
S113007400000003000000900000009000000060F5
S113008400010C0D000000900000009000001040DE
S11300940001020D000000900000009040040000E4
S11300A40001010D0000FE1F0000FE1F000000609F
S11300B400010C030000FE1F0000FE1F000010409E
S11300C4000002030000FE1F3800FE1F400400006D
S11300D400000103F0B2FE1FF8B2FE1F7804000012
S10700E40000010310
S1070400FFFFFFFFF8
S1070404FFFDFFFFF6
S11304400011223344550000C004FE1FC00AFE1FE1
S11304500811FE1F1C00FE1F1000FE1FFCC600003A
S11304600400000080000000040000008000000080
S10B0470E8030000102700005E
S10B0478010000000000000077
S1130480022818BF704741F218104CF28871C1F667
S1130490FE70C0F2000100F08CBED4D4ADF5347D02
S11304A00DF5027942AC09F1010041F2685640F2BF
S11304B009084CF6CD4B651E0190A9F1010002AF6D
S11304C0C1F6FE76C0F240084FF0000ACCF6CC4BE1
S11304D0009000BF20464FF4807108F0D9FD3846E3
S11304E04FF4807108F0D4FD306821464FF0FF329C
S11304F002F05CFE0128EDD1204608F0F3FD01284E
S11305004FF001020DDB00BF295C0A39162908D817
S113051002FA01F111EA080F03D005F800A001382E
S1130520F2DC9DF80801D8B3204608F0DBFD48B1A1
S1130530214600BF11F8012B3A3A12F10B0F2FD9C3
S11305400138F7D1204608F0D5FD07460198C721A8
S113055008F09EFD0126022F8DF8086232D24CF27B
S1130560E34202A84FF48071C0F200023B4608F057
S11305701DFE012E20EAE07167DB009AFC2842ACE4
S113058061DC02AF905D022E00F13000785401F17D
S113059001005DD3013EFC290146F3D358E000BFBE
S11305A04AF64421C0F200013846DCC9DCC0DCC98B
S11305B0DCC0098841F26856C1F6FE7602AF42AC4F
S11305C001804FE0022000BF46B30022002100BF9B
S11305D019F8023000FB0313A3FB0B14E10801EB31
S11305E08104A3EB440409F8024001329642EFD19E
S11305F00A2B14D33246C82E98BFC822B24212D056
S1130600A1FB0B34E30803EB8304A1EB440409F8D6
S11306100640013609291946F0D800E000260130C9
S1130620B842D1D99BE74AF62821C0F200010DF166
S1130630080EDDC9F446ACE8DD00087877468CF88E
S1130640000042AC0AE0084601E0084642AC02AFB2
S1130650391840F60D223A5281F802A041F2685648
S1130660C1F6FE7641F6B410C1F6FE700068394654
S11306706422002302F04AFC2CE7B0FA80F040F236
S113068060414009C1F6FE7108707047ADF5047D04
S113069041F21810C1F6FE7040F20A21002200F067
S11306A093FD4CF278674CF268604CF26C614CF24A
S11306B070624CF27463C0F20007C0F20000C0F232
S11306C00001C0F20002C0F20003009704F0BEFE75
S11306D000B900BE40F26044C1F6FE74207818B937
S11306E0642003F00BFAF9E7022001210622022616
S11306F006F011F840F264410446C1F6FE7101307F
S11307000C6005D140F26440C1F6FE7000BE04687E
S113071040F26845C1F6FE752846182108F0B8FC79
S113072040F6277068802046294618226E7006F02D
S1130730DAF800B100BE40F26440C1F6FE70006811
S1130740052106F0FBFD00B100BE40F29C4B41F2D6
S1130750685941F6B4164BF20E64C1F6FE7B4FF0B5
S1130760000844AF04ADC1F6FE79C1F6FE76C0F2CE
S1130770000400BF40F2644040F28042C1F6FE70C3
S1130780C1F6FE7218210068116040F28441C1F67E
S1130790FE7106F0A1FB411CCBF8000000F08A803A
S11307A041F21810C1F6FE7040F20A21012200F055
S11307B00BFD4FF0FF300390DBF800004FF47A712B
S11307C002910021002203ABA2463446042600967F
S11307D006F050FADBF800000021012202AB00967B
S11307E02646544606F046FADBF800004BF27B112D
S11307F0C0F20001352200BF002306F0D7FC3846C2
S11308004FF4807108F044FC28464FF4807108F0DE
S11308103FFCDBF800003946FF22002306F0D6FB3C
S113082001282FDBD9F8001007F800800846394664
S11308306422002302F06AFB01281BD13068294698
S113084041F2883202F0B2FCDBF800A0012807D1A3
S1130850284608F047FC02465046294603E000BFFC
S1130860504621462122002306F0A0FC0028C6DCC5
S113087008E000BFDBF800004BF66331C0F2000172
S11308801B22B9E7DBF80000022106F091FDDBF83A
S1130890000006F072F94FF0FF30CBF8000041F28F
S11308A01810C1F6FE7040F20A21002200F08CFC00
S11308B060E700BF322003F021F95BE710B582B096
S11308C041F2201241F220530024C1F6FE72C1F617
S11308D0FE734FF480700421009402F0A8FA41F2F0
S11308E06851C1F6FE71086018B90020002100F0BB
S11308F05DF841F26C5241F66C13C1F6FE72C1F61A
S1130900FE7304204FF48071009402F090FA41F6D3
S1130910B411C1F6FE71086008B102B010BD002028
S1130920002102B0BDE8104000F040B8FFF7C6BF98
S113093080B584B041F62420C1F6FE70016841F60A
S1130940B81C013101604BF20030C1F6FE70012188
S1130950CDE9001040F69B104BF291214CF2087344
S1130960C1F6FE7CC0F20000C0F20001C0F2000338
S11309704FF48072CDF808C002F054FE41F61821FD
S1130980C1F6FE71086008B104B080BD00200021EA
S113099004B0BDE8804000F009B810B5044600F08A
S11309A007F82046BDE81040FFF778BD00BE704749
S11309B0B0B541F61C24C1F6FE7420684FF0FF3137
S11309C002F0CEFC012803D020680021FFF7EEFFDF
S11309D041F62020C1F6FE70017801B1B0BD0121BD
S11309E00170FFF7A3FF41F62425C1F6FE7500BF91
S11309F0286801382860F1D02068002100220023F3
S1130A0002F084FA0128F3D020680021FFF7CEFF1A
S1130A10EEE780B541F62420C1F6FE7000210160A6
S1130A2041F62020C1F6FE7041F628220170C1F67D
S1130A30FE724FF48070012102F048FA41F61C2145
S1130A40C1F6FE71086018B900200021FFF7AEFF5F
S1130A5000F020F8FFF76CFF03F0CFF8002080BD12
S1130A6041F67023C1F6FE73036041F6D020C1F64F
S1130A70FE70086080201060704741F6D043C1F6D4
S1130A80FE73036041F63050C1F6FE7008608020AA
S1130A901060704780B584B041F62420C1F6FE7022
S1130AA0016841F6307C013101604BF20070C1F6FF
S1130AB0FE700121CDE9001040F6FF204BF23061B9
S1130AC04CF20C73C1F6FE7CC0F20000C0F20001CF
S1130AD0C0F200034FF48072CDF808C002F0A2FD0A
S1130AE041F69071C1F6FE71086008B104B080BD92
S1130AF00020002104B0BDE88040FFF757BF10B5C7
S1130B000446FFF755FF2046BDE81040FFF7BEBD81
S1130B101EF0040F0CBFEFF30880EFF309800149C6
S1130B2008470000AB0B00000D4B1968EFF3098276
S1130B301EF0100F08BF22ED108A22E9F04F0A6060
S1130B404FF0100080F31188BFF34F8FBFF36F8F06
S1130B5003F004F84FF0000080F3118800F002B8AD
S1130B6068A0FE1F064801680A68B2E8F04F1EF04C
S1130B70100F08BFB2EC108A82F309887047000096
S1130B8068A0FE1F10B5EFF31184102080F31188C4
S1130B9003F0B6F830B14EF60450CEF200004FF038
S1130BA08051016084F3118810BD806910F8020C33
S1130BB0022808BFFFF7D6BF042838BF704780B5A6
S1130BC04AF616304BF292724AF6E153C0F2000034
S1130BD0C0F20002C0F200034FF47E7101F000FC89
S1130BE0014640F6054022F00102C0F200004FF039
S1130BF0807C01E905106FF00202A1F1440041E993
S1130C000923704700BE00BFFEE7D4D44EF622503D
S1130C10CEF20000F021017000F016F84EF63470A8
S1130C20CEF20000016841F04041016062B6BFF3BA
S1130C306F8FEFF3148C2CF0040C8CF31488BFF337
S1130C406F8F02DF00BEFDE741F6F870C1F6FE705B
S1130C50006844F6D351C1F26201A0FB01014FF0D8
S1130C60FF3000EB91110020B0EB116F18BF7047FB
S1130C704EF21002CEF2000251604EF62351CEF233
S1130C800001F0230B709060072010607047102162
S1130C90EFF3118081F3118841F69471C1F6FE716E
S1130CA00A68531C0B605AB941F69871C1F6FE717B
S1130CB008604EF60450CEF200000068C00500D172
S1130CC0704780B54AF616304AF63C324BF23B6325
S1130CD0C0F20000C0F20002C0F2000340F2A441DE
S1130CE001F07EFB41F69470C1F6FE70016859B1C3
S1130CF00139016018BF704741F69870C1F6FE7063
S1130D00006880F31188704780B54AF616304CF2BB
S1130D10EF124AF66E23C0F20000C0F20002C0F2E5
S1130D20000340F2AD4101F05BFB88B14EF20C00D0
S1130D30C4F20100B0F90010B1F1FF3F09DDBFF3C7
S1130D404F8F30BFBFF36F8F62B6BFF36F8F72B632
S1130D50704780B54EF2FE32C4F20102B2F800E0F0
S1130D604AF2025CCFF6FF7C0023A2F800C00380A5
S1130D704EF425431380BFF34F8F30BFBFF36F8F03
S1130D8062B6BFF36F8F72B61388A2F800C00180F9
S1130D9043F42540108080BD80B572B602F08CFD0E
S1130DA00120FFF7C2FF62B6BDE8804002F0DEBD5D
S1130DB080B5EFF30380103840B2002806D44EF219
S1130DC00041CEF20001405C0F2817D94EF60C50BA
S1130DD0CEF200000068400558BF80BD4AF61630C8
S1130DE04BF698624AF61273C0F20000C0F2000299
S1130DF0C0F2000340F2216101F0F2FA4AF6163023
S1130E004BF698624CF29B13C0F20000C0F2000251
S1130E10C0F2000340F20F6101F0E2FA80B582B043
S1130E2041690022019219B30279D31E022B14D214
S1130E3008680068D0B101AA002103F0FFFA019804
S1130E40A0B14EF60450CEF200004FF08051016084
S1130E50BFF34F8FBFF36F8F08E0092A06D10069F3
S1130E60006802B0BDE8804004F0CFBD02B080BD90
S1130E704BF2A4704BF67F324BF6A203C0F2000093
S1130E80C0F20002C0F2000340F2071101F0A8FA18
S1130E9070B549B341F69C760546C1F6FE764CF230
S1130EA001220C46C0F20002304611212B4608F004
S1130EB07DF904F11400142108F0EAF840F60970F1
S1130EC0C0F2000040F6FD7141F23B0204F1080358
S1130ED0C0F20001C0F2000207C32046C4E9006565
S1130EE005F09EFA204670BD4BF2A4704BF6CD027D
S1130EF04CF2E053C0F20000C0F20002C0F2000362
S1130F004FF4997101F06CFAF0B583B040F2180116
S1130F10C1F6FE710E68002E52D00446D6E90001D7
S1130F2081600D68002D5AD069684878012800D185
S1130F30FEE7AA6828681268904708B10E2838D1DD
S1130F40A96828688969884735680746296881B986
S1130F5070684BF6EF01D0E901C241F29500C0F28E
S1130F600000C0F200012346CDE900C502F055FCA3
S1130F70356855F8040F78B970684BF65111D0E90B
S1130F8003C241F24D10C0F20000C0F2000123463A
S1130F90CDE900C502F041FC7FB93068016861B158
S1130FA0416851B144F25031C0F25401C160012092
S1130FB004E0A968286849688847002003B0F0BDA8
S1130FC04BF2A4704CF230424BF6A203C0F2000084
S1130FD0C0F20002C0F20003722101F001FA4BF2E8
S1130FE0A4704CF230424AF63E63C0F20000C0F2F4
S1130FF00002C0F20003772101F0F2F970B540F26B
S11310001800C1F6FE7000688B6A40680C460068E0
S11310103B2B9CBF3C23A362816800684D69616AD5
S113102016461A46A847012E054602D1204603F06B
S1131030A0FDB5FA85F0400970BD80B540F21800F6
S1131040C1F6FE70006840680068816800688969BC
S11310508847B0FA80F0400980BDFFF719BFB0B5EA
S1131060044608F04BF8054608F048F8C5EA004184
S113107001202160B0BDD4D410B582B0002001ACF1
S1131080019000BF2046FFF7EAFF01980028F9D03D
S113109002B010BD84B040F2180A04460025C1F61F
S11310A0FE7A0DF104094FF0010B0DF1080800BFA1
S11310B0002000214FF0FF3203F068F940F2EA50BB
S11310C0002103F0ECFC0028F2D00746DAF8000017
S11310D04068006841688268C96993680191006842
S11310E0796A4A46984768B1796A06462046019566
S11310F0C7E90A5405F09BFAB6F57A6F386321D133
S113110008E000BF0198796AC7E90A04204605F09F
S11311108EFA3863B0B1786A04F0C1FB012811D1AA
S1131120404600218DF808B0039704F062F90128C5
S113113008D140F2EA50002103F0B1FC0746002830
S1131140B6D0C3E7384603F014FDB1E782B040F2ED
S11311501801C1F6FE710F688046796800200C689A
S113116040F6A17A41F2883BE94640F6A175CDE903
S1131170000800BF486902F0C1FCA16820688969C1
S1131180884785420BD00646584518BF564508D1B6
S11311904846002104F02DF9012808BF3546796836
S11311A0E8E7002EFBD1D8F8200004F0ECF8002585
S11311B0F5E780B545F25422C5F24F0202600846B5
S11311C000F018F8002080BDC8B2012383409BB210
S11311D04FF4803C002A08BF0CFA00F36FF00100C2
S11311E000EAD11008220101C4F204020020535085
S11311F07047D4D470B5044600F05CF841F6E47C42
S1131200EFF31080012181F31088C1F6FE7CDCF835
S1131210001039B940F60351C4F2040100220A70E7
S113122040220A70DCF800100131CCF8001080F381
S11312301088208810B340F6000E0021C4F2040E7A
S1131240606800EBC102928850F83130100ADD0367
S1131250D2B20BD50EEB801555F8226026F48036F9
S113126045F8226023F4803645F822600EEB8010A6
S113127040F82230208801318142E1D3EFF310811C
S1131280012080F31088DCF8000020B1DCF80000B5
S11312900138CCF80000DCF8000038B940F60350FF
S11312A0C4F20400002202708022027081F31088CC
S11312B070BDD4D42DE9F04F81B0044600880028D5
S11312C05CD044F240084EF2BB4A4CF2967BC4F226
S11312D004080026C4F2010AC0F2000B4FF0010911
S11312E0002700BF60683BF8172000EBC600818828
S11312F091423CD100689AF8001000F0B85009FA05
S113130007F5B0F1807F05EA010015D150B901203D
S113131001F005F99AF8000028438AF8000001203A
S113132001F0D4F818F91700002820D418F8170091
S113133040F0800015E000BF50B1012001F0EFF84B
S11313409AF80000A8438AF80000012001F0BEF8D2
S113135018F91700B0F1FF3F09DC18F8170000F086
S11313607F0008F81700C820012101F03CF801377C
S1131370032FB7D1208801368642B1D301B0BDE82E
S1131380F08FD4D4F0B581B00D460446087840F609
S11313900051C4F2040101EB802000F5083000F58F
S11313A0A1500027C4E90150E760A87B4FF4004234
S11313B000284FF0000008BF10200870012020749E
S11313C020460021009700F0B3F86E462046002125
S11313D0324600F041F89DF801106868090607F1EB
S11313E0010701D58742F1D3874206D244F659005A
S11313F0C5F250202060002000E0142001B0F0BDB0
S113140080B5112107F044FE002080BDF0B581B005
S1131410054601200C4600272874284600214FF475
S11314200042009700F084F86E4600BF2846002171
S1131430324600F011F89DF801106068090607F1C2
S1131440010701D58742F1D387424FF0140038BF1A
S1131450002001B0F0BDD4D42DE9F04190460E46F1
S113146005462027284600F049F9B8B2013F012873
S1131470F8D828463146022200F01EF9284600F02A
S113148099F9284600F096F9A8680022102301264D
S1131490002100BF6F68BF68012F29DB013700BF3F
S11314A0013F012F0260FBD86F68BF680468012FF9
S11314B0C4F3C00444EA41011FDB0137013F012F9B
S11314C00660FBD86F68BF68012F16DB013700BFC9
S11314D0013F012F0660FBD86F68BF68012F0CDB4A
S11314E0013700BF013F012F0260FBD805E000BFB8
S11314F00768C7F3C00747EA4101013BCAD86868D7
S11315008368012B0FDBA8689A0F9B00002600BF9D
S11315105F1E62F10005D3F1010376EB02023B4644
S11315202A460660F4D30020C8F80010BDE8F08114
S1131530F0B581B015460E4604462027204600F03B
S1131540DDF8B8B2013F0128F8D82046314601221F
S113155000F0B2F8204600F0D1F8204600F0FCF884
S1131560112600BF280403D4204600F0F5F802E059
S1131570204600F0C3F8013E012E4FEA4505F1D89C
S113158060688268012A0EDBA068910F9200002334
S1131590571E61F10006D2F1010273EB01013A46D4
S11315A031460360F4D3002001B0F0BD10B582B021
S11315B00446406840F6E152407B0421002820465E
S11315C008BF40F2E112E260FFF7B2FF20460021BB
S11315D04FF49052FFF7ACFF01AA20460421FFF715
S11315E03BFF002002B010BD2DE9F04182B0064659
S11315F0002001AC1746884601903046012122465E
S11316001D46FFF729FF304601212246FFF724FF3C
S11316100198410702D441F2883034E0F1684A0568
S113162004D5396841F002013960F168090503D530
S1131630396841F001013960800602D441F28930F1
S113164021E001AA30460521FFF706FF0198410574
S113165044BF02212960010503D5296841F0010135
S11316602960C1050BD441064FF0020158BFC0F3F5
S11316704011000648BF03210029CCD000E004211A
S11316800020C8F8001002B0BDE8F081B0B582B007
S113169001AD01212A460446FFF7DEFE2046012162
S11316A02A46FFF7D9FE019840074FF0000058BFC3
S11316B041F2883002B0B0BD70B504464068022AD9
S11316C040694FF4A042806808BF4FF4C0420078DC
S11316D042EA810141EAC0150F2600BF280403D461
S11316E0204600F039F802E0204600F007F8013EF9
S11316F0012E4FEA450598BF70BDEFE741688A683F
S1131700012A27DB81680132062300BF013A012A3E
S11317100B60FBD842689268012A1BDB0132072365
S1131720013A012A0B60FBD842689268012A11DB56
S113173001320723013A012A0B60FBD84068806814
S11317400128B8BF70470130062200BF01380128C4
S11317500A60FBD87047D4D441688A68012A27DB21
S113176081680132022300BF013A012A0B60FBD8D1
S113177042689268012A1BDB01320323013A012AE1
S11317800B60FBD842689268012A11DB0132032303
S1131790013A012A0B60FBD8406880680128B8BF71
S11317A070470130022200BF013801280A60FBD8CB
S11317B07047D4D441688A68012A27DB81680132E2
S11317C0002300BF013A012A0B60FBD842689268EB
S11317D0012A1BDB01320123013A012A0B60FBD8E9
S11317E042689268012A11DB01320123013A012A7D
S11317F00B60FBD8406880680128B8BF704701308F
S1131800002200BF013801280A60FBD870472DE987
S1131810F04F81B00446006844F64508C4F25458B9
S1131820404501D10E20B6E00D464E6B087844F2D7
S11318300011C4F2060101EB8029C4F81090287845
S113184047F20007C4F2040707EB002000F5E83A6A
S11318504FF0000BC4F814A06560C4F818B0697D9B
S11318603068090107F014FC6068017D70680901A3
S113187007F00EFC204600F087FAA86A0121E06117
S1131880286BC4E908B0EFF3108081F31088626814
S113189012783B68C2F10F02914023EA01013960DA
S11318A0396880F310886069016841F001010160C2
S11318B041F6F870C1F6FE7000684EF20011C0F2F5
S11318C0F551B1FBF0F00121013000F08CFD6068AE
S11318D0616980688A6F60F305028A67606840798D
S11318E08A6F00F0030022F4403242EA0040886725
S11318F06068C16A07C91268904741F2883188421A
S113190047D0002847D16068C06A81680068496987
S113191088473720C9F8100040F69F70C4F2FF7062
S1131920CAF82800DAF830004EF2001240F48000C1
S1131930CAF830006068CEF2000290F8241090F9E2
S113194020000901831883F8001341F6E871C1F6F9
S1131950FE7141F8204046F20031C4F2000151F812
S1131960203023F4803341F8203051F8201000F067
S11319701F010123400903FA01F102EB8003BFF3C5
S11319805F8FC3F8801142F820100020C4F8008053
S113199001E040F6A57001B0BDE8F08FF0B581B06C
S11319A004464068D4E9045690F92000002812D473
S11319B000F01F01012202FA01F14EF280124009E7
S11319C0CEF2000242F82010BFF34F8FBFF36F8FA7
S11319D0606890F8200041F6E87140B2C1F6FE71EB
S11319E0002741F820706068C06A8168006849680F
S11319F08847A869012120F00400A861306B47F2F0
S1131A00000320F4800030632F60A761EFF310809F
S1131A1081F310886268C4F2040312781E68C2F16C
S1131A200F02914031431960196880F310882760D0
S1131A300020676001B0F0BDF0B581B00546C07EFE
S1131A40012818D128690068800517D414460E4669
S1131A50AA68106800281ED46868817811B91168D2
S1131A6009061BD4116809010BD5284600F028F893
S1131A700028EDD022E040F6A1701FE040F6A270ED
S1131A801CE09168928843799F1804D0407868B12B
S1131A900020316011E04FF47A600FE0284600F036
S1131AA00FF8002808BF40F6A47007E030463A4615
S1131AB007F0F2FA284600F003F8276001B0F0BD01
S1131AC0C17E01291CBF40F6A170704701690968F5
S1131AD0890544BF40F6A270704781680A68002AED
S1131AE00ED40A684FF66043CCF2FF731A400A60C2
S1131AF081680A6842F000420A608168C9688160AE
S1131B004069016901291CBF01210161002070475E
S1131B1082681368002B18D4916081684FF6604383
S1131B200A68CCF2FF731A400A6081680A6842F0BE
S1131B3000420A608168CA684169826008690128B4
S1131B401CBF012008610020704740F6A670704752
S1131B5070B50446C07E01281CBF40F6A17070BD5C
S1131B6020690068800544BF40F6A27070BD6068BB
S1131B700E4641781546D1B1012904BFE06886605C
S1131B80E068C580E068016821F040510160E068C8
S1131B90016841F030410160E068C1686069E1605A
S1131BA0816801291CBF01218160002070BDE168AA
S1131BB00A68002A02D4C069A84202D240F6A3707F
S1131BC070BD886831462A4607F066FA6068417835
S1131BD0D2E7F0B587B004464068A17E466B012980
S1131BE021D1E2690021A1765AB10278006B8DF807
S1131BF0081003910491069001A92046019200F077
S1131C00DCF8207E8DF8030065682046FFF7C6FEE9
S1131C1020462946FFF7FBFD054600286ED19DF8B6
S1131C20031060682176C06A81680068C9698847C2
S1131C3041F288318842207E4FF0000508BF40F60B
S1131C40A17504D1012807D10020012102E018B9AF
S1131C500120022161762076607E012824D00228AA
S1131C604CD1002760686776417D3068090107F030
S1131C700FFA6068017D7068090107F009FA2046CF
S1131C8000F082F801206168E076096920460022AC
S1131C9000F0B8F82046002100F088F9E8B10546C4
S1131CA00220E776607629E00020216960760A68E0
S1131CB022F040020A600A6822F020020A60E16908
S1131CC0E076D9B1616803900A78096B0192022227
S1131CD08DF80820049006910CE0E069002568B1B5
S1131CE0606803950178006B019101218DF808105B
S1131CF00495069001A9204600F05FF8284607B035
S1131D00F0BD10B50446C07E01280AD160680122E6
S1131D100169204600F076F82046012100F046F9DA
S1131D2010B140F6A17010BD6068C06A8168006897
S1131D30C969884741F2883188424FF0000008BFE2
S1131D4040F6A17010BD42684369506BD3F8D83097
S1131D508BB1D0F804C0A3F11000604503D2107D0C
S1131D600CEB0010103882682AB10068002802D4F5
S1131D7000200A607047222070478446C0E9071398
S1131D800020CCF82420704770B50446406881696F
S1131D9091B1417809B1457D02E0017D407D45184E
S1131DA055B100266068D0E9060150F8260007F016
S1131DB06FF90136B542F5D170BD2DE9F04387B016
S1131DC08146006A0DF1040830B184469CE8F44071
S1131DD0434683E8F44000E0404609790171D9F8AC
S1131DE0041009780160D9F824104161D9F81C1055
S1131DF08847D9F8200010B198E8EE00EEC007B08B
S1131E00BDE8F0832DE9F0410446D0E90450904642
S1131E1003680E4643F00102026041F6F870C1F611
S1131E20FE7000684EF20012C0F2F552B2FBF0F000
S1131E300121013000F0D7FA6068616980688A6F17
S1131E4060F305028A67606840798A6F00F00300D6
S1131E5022F4403242EA004088673068B18800BA10
S1131E6049BAC5F8C000C5F8C8106768797D786BB1
S1131E7069B3002110224FF0004C00260568FB696D
S1131E80AF1827F80A3C27F80C1C0368134447F8DA
S1131E90043C636810329B69002B1ABF53F8263048
S1131EA047F810CC002347F8083C676801367B7D6F
S1131EB09E42E3D3A91851F8202D42F080420A60D3
S1131EC00268CA606368A2601A7D12B92EE0397D87
S1131ED099B34FF0000E10224FF0010C002600BF02
S1131EE04568AF1827F80ACC27F80CEC47F810EC33
S1131EF04168114447F8041C61684B78002B4FF08B
S1131F00000309D18B692BB1497D03EB810151F8A1
S1131F10263001E0002300BF47F8083C6168013621
S1131F20097D10328E42DBD3A91820390A6842F0A9
S1131F3080420A604068C860E060D4E90410B8F1E7
S1131F40000F07D08A6942F002028A61026B42F4F0
S1131F5080020AE0026B42F480020263026B42F4E4
S1131F6080220263026B42F40012026340F2EE52DA
S1131F708A6014220A656268D268CA66016841F000
S1131F8040010160A1680162E1688161616889784A
S1131F90002918BF802181630021816440F20F7100
S1131FA0016501218165BDE8F081D4D42DE9F041BA
S1131FB084B0044662680020D26A039002900190C3
S1131FC09068D4E90468876910680D4603A902AAD9
S1131FD001ABB84710B140F6A1708AE0039801380C
S1131FE00328F8D8DFE800F0021C0B143068012144
S1131FF020F002003060306820F0040018E03068FF
S1132000012120F002003060306840F004000FE04D
S1132010306840F002003060306840F0040006E0B0
S1132020306840F002003060306820F00400002185
S1132030306045B1306840F400703060306840F082
S11320404000306054E031BB60680079012822D13F
S11320504FF6FF70706500207066C8F87000316834
S113206041F400213160DDE9011201F0030162F362
S113207083014CF2E472C0F2000200BF02EB800361
S113208012F820705D780F40AF420CD00130082860
S1132090F4D100200FE0306820F4803030603068E4
S11320A020F4003012E09978D878012903D13168FE
S11320B041F4803102E0316821F4803131603168CB
S11320C0012814BF21F4003041F40030306060680E
S11320D0C078316860F300013160306840F040003E
S11320E03060306840F0200030600120C8F81000F3
S11320F0002004B0BDE8F0812DE9F04F87B0EFF384
S113210003804FF0704101EB006041F6E8718015E7
S1132110C1F6FE7151F800B0DBF80420DBE90410CD
S1132120566BD1F81090876A5FEA472807D55FEAB3
S1132130897244BF01228BF81A20C1F8109087627B
S1132140DBF81C0000283FD0DBF804004CF6240424
S11321500178006B0025C0F200040DF1040A01911E
S1132160069000BF04EBC5004068B16808403842DF
S113217007D014F8350051468DF808005846FFF78B
S11321801CFE0135062DEDD1B8F1000F1CD54CF61F
S1132190540500200127C0F200050DF1040800BF1A
S11321A005EBC0004168327B114011EA090F06D0EB
S11321B0007841468DF808005846FFF7FEFD0120DF
S11321C0F9074FF00007EBD1EFF303804FF07041B4
S11321D001EB006046F200318015C4F20001425860
S11321E022F480324250405807B0BDE8F08F4EF2DE
S11321F02000C4F20100817940F238420068C1F63F
S1132200FE7252F82110C0F3026021FA00F041F688
S1132210F871C1F6FE7108607047D4D42DE9F0411D
S11322204EF2FE35C4F201054CF200144AF203509A
S1132230C4F2010428800020208040F2384742F68E
S1132240005041F6004C4EF22006C1F6FE77C0F273
S1132250311041F200214FF4004241F60033C0F640
S11322604E6CC4F20106C0F27A01C0F2B70387E8EB
S11322700F00C7E9042CB079316857F82000C1F386
S1132280026141F6F878C840C1F6FE78C8F800004B
S113229020206875092086F8820095F8820018B914
S11322A095F88300800756D095F8820050B9012034
S11322B085F88200C820012100F095F895F8820085
S11322C00128FBD1002085F8830085F882000620D0
S11322D086F885000020B074307F0007FCD54FF4E9
S11322E01C5030810020B072307F8006FCD5022063
S11322F0207741F22120C2F2011030600520B07134
S1132300B079316857F82000C1F30261C840C8F8B9
S1132310000042F20400C4F20000F12101700E2119
S1132320BFF35F8F0171F021BFF35F8F0170012054
S11323304021307486F8320086F8330031714FF44E
S113234025412980A08000BFA0880028FCD101205D
S11323502080BDE8F0814FF47A7000F001F8B6E710
S11323607047D4D4B0B544F22404C4F20404002564
S1132370C8200121257100F036F825702078002846
S1132380FCD1207840F00200207000BF2078800744
S1132390FCD4002004F8020C14F8020C0028FBD131
S11323A0002004F11C0100BF11F8102002F07F028C
S11323B001F8102011F91020002AFBD40130032861
S11323C0F2D1012000F0ABF84EF2BB41C4F201019E
S11323D0002201200A70BDE8B04000F077B87047D1
S11323E000BE00BFFEE741F6F872C1F6FE72126845
S11323F041F20023C0F27A039A4201FB00F00FD3AA
S113240040F6FF01C0F23D0111444DF68362C4F26F
S11324101B32A1FB0212110DA0FB0101D9B11DE079
S11324204CF6002348F63811C3F69A33C0F2410142
S1132430B3FBF2F2884206D24FF47A714843B0FB00
S1132440F2F0800807E09200B0FBF2F0884205D277
S11324504FF47A71484328B100F005B84FF0FF30CB
S113246000F001B8704701380028FCD17047D4D47B
S11324702DE9F04146F22018C4F20008B8F8000033
S1132480B8F8201041F6B07501EA0006B7B200248E
S1132490C1F6FE7527FA04F0C00704D055F82410DD
S11324A009B12046884701340D2CF3D1A8F81060F7
S11324B0BDE8F0814CF29470C0F20000008820B1B5
S11324C046F20031C4F20001086070470122EFF3C4
S11324D0108182F3108841F6EC72C1F6FE7232F874
S11324E0103023B132F81030013B22F8103032F8AA
S11324F010208AB94EF2FE3CC4F2010C4CF6640280
S1132500BCF80030C0F2000232F8100043F4254257
S113251022EA0000ACF8000081F31088704780B50F
S11325200122EFF3108182F3108841F6EC72C1F6B8
S1132530FE7232F810308BB94EF2FE3C4CF6640356
S1132540C4F2010CC0F20003BCF800E033F8103010
S113255043EA0E0343F42543ACF8003032F810305C
S1132560013322F8103081F3108880BD00F006F8A2
S1132570FEF74FFAFEE700BE7047D4D4B0B54EF66E
S11325800850CEF200004FF47001C0F8801040F201
S11325900001C0F20001016000200024FDF770FF7B
S11325A0FFF73CFE01200125FDF76AFF40F60050CD
S11325B0C4F200004FF425418480018040F23801C8
S11325C0C1F6FE71816001F58061C16046F220119F
S11325D0C4F200014FF480520A808580002000F08C
S11325E031F8FFF704FEFFF7BDFE0220FDF748FFB8
S11325F0012000F027F84BF2F024C1F6FE742046C7
S113260006F0ACFD204606F0BDFD4CF616604CF617
S11326101661C0F20000C0F20001081A8410012CF7
S113262009DB4CF61665C0F2000500BF55F8040B33
S11326308047013CFAD1FFF73DFF0020BDE8B040E0
S1132640FFF7CDBEF0B581B040F24405C0F20005FD
S11326502E68044676B16868071D00BF7879844205
S113266004D157E90101091A06F012FD013E07F1F0
S11326700C07F3D1AE6886B1E86800F1080500BF25
S11326806879844205D155E902022968121A06F0D4
S113269003FD013E05F11005F2D101B0F0BDD4D423
S11326A0B0B500F10805092D06D310F0070104D0D8
S11326B009398D4240F2C080002501F0FDF841F651
S11326C0FC72C1F6FE72116829B142F20000C1F633
S11326D0FE70006826E042F20C03C1F6FE73D81DBA
S11326E0590703F5004118BF20F0070342F2040024
S11326F0C1F6FE700024C0E9003421F00700A0F107
S11327000801116040E90244C81A11684AF20C0237
S1132710C1F6FE72C3E90010106042F20002C1F675
S1132720FE721060012D4FF000046FDB85426DD8FE
S113273042F20400C1F6FE70026842F20C0CC1F6CB
S1132740FE7C6245C0F08C8047F6FF706044824294
S113275000F286805068A84212D2106880B147F611
S1132760FF730CEB030400BF60456AD313460246B3
S1132770A04266D85068A84206D2106820B1F3E798
S113278042F20403C1F6FE738A423ED0186800F197
S11327900804644573D347F6FF70604484426ED8DE
S11327A0106818605168A94279D3481B11280DD3C9
S11327B002EB050C5FEA4C7140F08180CCF8040018
S11327C0556018685051C3F800C0516842F20005C2
S11327D0C1F6FE754AF20C0C2B68C1F6FE7CDCF8DF
S11327E000005B1A834241F000404FF000012B606F
S11327F038BFCCF80030C2E900104AF21000C1F62C
S1132800FE7001680131016000E0002401F0AEF8BF
S1132810600704BF2046B0BD4BF2DA704AF63E7240
S11328204BF2CA23C0F20000C0F20002C0F200035F
S113283040F25711FFF7D4FD20F0070000F1100516
S11328403BE74BF2DA704AF63E724BF6A843C0F20D
S11328500000C0F20002C0F20003FB21FFF7C0FD3C
S11328604BF2DA704AF63E724BF6A843C0F200000F
S1132870C0F20002C0F20003F521FFF7B1FD4BF2F4
S1132880DA704AF63E724BF26A53C0F20000C0F2AC
S11328900002C0F2000340F20511FFF7A1FD4BF264
S11328A0DA704AF63E724AF65D43C0F20000C0F2A6
S11328B00002C0F2000340F20D11FFF791FD4BF24C
S11328C0DA704AF63E724BF61703C0F20000C0F20B
S11328D00002C0F200034FF48B71FFF781FDD4D4E2
S11328E070B5002841D042F20C06A0F10805C1F6EB
S11328F0FE760446B54254D347F6FF703044854211
S11329004FD854F8040C00285BD52968002968D1F5
S113291020F0004044F8040C00F0CEFF42F2000026
S1132920C1F6FE7054F8041C026842F204030A441F
S1132930C1F6FE7302601A4610461268AA42FBD31F
S1132940984206D0B0425CD347F6FF7333449842B2
S113295057D84368C618AE4202D1194405464160AF
S11329606B18934202D013460CE070BD41F6FC7321
S1132970C1F6FE731B689A4204D052681144696020
S113298001680B68A8422B6018BF05604AF2140066
S1132990C1F6FE70016801310160BDE8704000F0CD
S11329A0E5BF4BF2DA704BF691324CF25443C0F26D
S11329B00000C0F20002C0F200034FF4B571FFF74B
S11329C00FFD4BF2DA704BF691324BF66513C0F201
S11329D00000C0F20002C0F2000340F26B11FFF7E6
S11329E0FFFC4BF2DA704BF691324CF20723C0F243
S11329F00000C0F20002C0F200034FF4B671FFF70A
S1132A00EFFC4BF2DA704AF64B724AF68023C0F2BE
S1132A100000C0F20002C0F200034FF4FD71FFF7A2
S1132A20DFFCB0B51C20FFF73BFE044628B10025AF
S1132A30201D256000F054F925762046B0BDD4D47D
S1132A402DE9F041D0B30D46B1F1807F46D28046E6
S1132A5000F10C0600F030FFD8F80000D8F8107030
S1132A602843B742C8F800001DD000253846D7E9EE
S1132A700037D8F8001023F07F425C0101EA020419
S1132A800AD434B141F00071DB0148BF154301F0B1
S1132A9046FBB742EAD102E09442F3D0F9E7D8F812
S1132AA00000E94301E04FF0FF310840C8F800009E
S1132AB000F05CFFD8F80000BDE8F0814BF2347000
S1132AC04AF6B0624BF6D813C0F20000C0F200021E
S1132AD0C0F2000340F23221FFF782FC4BF2347063
S1132AE04AF6B0624BF20333C0F20000C0F20002B7
S1132AF0C0F2000340F23321FFF772FC2DE9F043EA
S1132B0081B000286DD00D46B1F1807F79D2002DBF
S1132B1000F08780089E99469046044601F016FC12
S1132B2016B1002800F08D8000F0C6FE276807EA81
S1132B300500B0FA80F1401B18BF0120B9F1000F65
S1132B4008BF4809002840D0002E44D04146B8F1BF
S1132B50000F18BF4FF08071B9F1000F18BF41F09A
S1132B608061201D2943324601F0C7F900F0FEFEC2
S1132B7050B94EF60450CEF200004FF0805101607F
S1132B80BFF34F8FBFF36F8F01F0F3FB0646800155
S1132B9018D4FEF77CF8266816EA0500A0EB0501B8
S1132BA018BF0120B9F1000FB1FA81F118BF48092B
S1132BB0B8F1000F18BF002802D026EA05002060F3
S1132BC0FEF790F826F07F4707E0B8F1000F1CBF2E
S1132BD027EA0500206000F0C9FE384601B0BDE8D0
S1132BE0F0834BF234704BF69B324BF6D813C0F2A1
S1132BF00000C0F20002C0F2000340F24711FFF7E8
S1132C00EFFB4BF234704BF69B324BF2B113C0F234
S1132C100000C0F20002C0F200034FF4A471FFF7F9
S1132C20DFFB4BF234704BF69B324BF2E913C0F2EC
S1132C300000C0F20002C0F2000340F24911FFF7A5
S1132C40CFFB4BF234704BF69B324AF65D63C0F215
S1132C500000C0F20002C0F200034FF4A671FFF7B7
S1132C60BFFBD4D4B0B558B3044600F025FE606869
S1132C7060B104F10C0500BF2069A84210D04FF0E8
S1132C80007101F04CFA60680028F5D100F06EFE86
S1132C90207E00B1B0BD2046BDE8B040FFF720BEA5
S1132CA04BF234704BF266724BF23733C0F20000D1
S1132CB0C0F20002C0F2000340F29A21FFF790FB39
S1132CC04BF234704BF266724BF6B763C0F20000FD
S1132CD0C0F20002C0F2000340F28E21FFF780FB35
S1132CE04FF0FF31024642F8081F0021C0E90322D9
S1132CF0C0E90012704700210161704742684A60D0
S1132D0093688B60596091600861016801310160CA
S1132D107047D4D480B5D1F800C01CF1010207D0AB
S1132D2000F108029646526813686345FAD903E035
S1132D30D0F810E0DEF804204A609160C1F808E0A1
S1132D40CEF80410086101680131016080BDD0E94A
S1132D5001230169936042685A604A68824201D142
S1132D6082684A600022026108680138086070477E
S1132D7070B500284BD00446C06BC0B30E46216C1E
S1132D80A0FB010199BBFDF782FF2068D4E90F1273
S1132D90002502FB0103013901FB0201A563C4E91B
S1132DA00103FF20E16084F8440084F8450004F145
S1132DB010004EB1FFF794FF04F12400FFF790FFD9
S1132DC0FDF790FF012070BD01680029F8D001F0E3
S1132DD020F90028F4D04EF60450CEF200004FF053
S1132DE080510160BFF34F8FBFF36F8FE8E74BF65D
S1132DF08C204CF2D0124BF6C973C0F20000C0F222
S1132E000002C0F200034FF4B671FFF7E9FA4BF683
S1132E108C204CF2D0124BF63273C0F20000C0F298
S1132E200002C0F2000340F23711FFF7D9FA10B5DF
S1132E3082B05BB3D0B11C4601B9BAB901B1AAB131
S1132E4048230193019B482B30D1019B012384F833
S1132E504630002908BF2246C4E90F01204601215B
S1132E602260FFF785FF204602B010BD4BF68C2090
S1132E704BF278724BF61A53C0F20000C0F2000213
S1132E80C0F200034FF4D871FFF7AAFA4BF68C2076
S1132E904BF278724BF27D03C0F20000C0F20002E4
S1132EA0C0F200034FF4C271FFF79AFA4BF68C207C
S1132EB04BF278724BF28163C0F20000C0F2000260
S1132EC0C0F200034FF4CB71FFF78AFAB0B582B0B9
S1132ED060B10D46814209D81446002100222346E0
S1132EE0FFF7A5FF2046A56302B0B0BD4BF68C20CA
S1132EF04BF6E4124BF28B03C0F20000C0F2000266
S1132F00C0F200034FF45E71FFF76AFA2DE9F04F47
S1132F1085B00028049200F09D8099461546044629
S1132F2019B9206C002840F0C580B9F1020F03D113
S1132F30E06B012840F0AE80019101F007FA10B96E
S1132F40002D40F09780FDF7A2FEA06BB9F1020FAF
S1132F5059D0E16B884256D304F11007012002AE28
S1132F604FF0000B04AD00BF0499002966D0C007E0
S1132F7002D0304601F080F9FDF7B4FE00F09CFC6D
S1132F80FDF785FE94F84400FF2808BF84F844B098
S1132F9094F84500FF2808BF84F845B0FDF7A2FE69
S1132FA03046294601F075F900284AD1FDF76FFE35
S1132FB0D4F838A0D4F83C80FDF794FEC24515D16E
S1132FC00499384600F078FF204600F0B5F800F088
S1132FD0CDFC80B94EF60450CEF200004FF0805183
S1132FE00160BFF34F8FBFF36F8F04E0204600F002
S1132FF0A3F800F0BBFCFDF74AFEA06BE16B88422E
S11330004FF00000B0D2019920464A4600F062F821
S113301054F8240F70B1204600F0FBFF50B14EF677
S11330200450CEF200004FF080510160BFF34F8F87
S1133030BFF36F8FFDF756FE012008E0FDF752FE47
S113304004E0204600F078F800F090FC002005B081
S1133050BDE8F08F4BF68C204AF6C3624BF6327310
S1133060C0F20000C0F20002C0F2000340F2B63128
S1133070FFF7B6F94BF68C204AF6C3624AF65D6355
S1133080C0F20000C0F20002C0F2000340F2BB3103
S1133090FFF7A6F94BF68C204AF6C3624BF2930372
S11330A0C0F20000C0F20002C0F200034FF46E71DF
S11330B0FFF796F94BF68C204AF6C3624CF2EB43C9
S11330C0C0F20000C0F20002C0F2000340F2B731C7
S11330D0FFF786F970B5866B036C044643B3154657
S11330E0CAB1E0681A4605F0D7FFE168206C22688F
S11330F0091A9142E16003D2A16840420844E060A9
S1133100A81EB0FA80F040093146002E18BF0121F4
S11331100840361A0CE060681A4605F0BDFFD4E991
S11331200101226C10448842606001D32068606011
S1133130701CA06370BDD4D4F0B581B00446FDF713
S1133140A6FD94F94560012E0EDB04F1240500BFB1
S1133150286848B1284600F05CFF08B101F0E9F89E
S113316070B2013E0128F3DCFF2684F84560FDF7C8
S1133170B9FDFDF78CFD94F94470012F0EDB04F1C9
S1133180100500BF286848B1284600F042FF08B186
S113319001F0CFF878B2013F0128F3DC84F84460F1
S11331A001B0BDE8F040FDF79DBDD4D42DE9F04F4A
S11331B083B00028029200F0A28016468946044695
S11331C019B9206C002840F0BA8001F0BFF810B99A
S11331D0002E40F0A480FDF75AFDD4F838A0BAF1CF
S11331E0000F28D0226C52B1D4E902011144E160ED
S11331F0814224BF2168E160484605F04DFF54F840
S1133200100FAAF10101A16270B1204600F001FF84
S113321050B14EF60450CEF200004FF080510160E0
S1133220BFF34F8FBFF36F8F0124FDF75BFD204683
S113323003B0BDE8F08F04F1240801206F464FF07D
S1133240000B02AE0299002955D0C00702D03846BF
S113325001F012F8FDF746FD00F02EFBFDF717FD17
S113326094F84400FF2808BF84F844B094F845005B
S1133270FF2808BF84F845B0FDF734FD38463146D1
S113328001F007F860B12046FFF756FF00F06EFB2F
S1133290FDF7FDFCA56BFDF725FD75B322E000BF2E
S11332A0FDF7F5FCA56BFDF71DFD2DB12046FFF7DD
S11332B043FF00F05BFB15E00299404600F0FCFD83
S11332C02046FFF739FF00F051FB58B94EF6045081
S11332D0CEF200004FF080510160BFF34F8FBFF377
S11332E06F8F00BFFDF7D3FCD4F838A00020BAF1EB
S11332F0000FA7D076E7002497E7002497E74BF662
S11333008C204BF608224AF6FF73C0F20000C0F28C
S11333100002C0F2000340F2E951FFF761F84BF6F6
S11333208C204BF608224AF65D63C0F20000C0F21E
S11333300002C0F2000340F2F251FFF751F84BF6DD
S11333408C204BF608224BF62553C0F20000C0F245
S11333500002C0F2000340F2ED51FFF741F8D4D46B
S11333602DE9F04F83B00028029100F08E800446CE
S1133370006C002840F099800D4600F0E7FF10B97A
S1133380002D40F0A280FDF782FCA16BD1B154F86E
S1133390100F0139A16270B1204600F03AFE50B11D
S11333A04EF60450CEF200004FF080510160BFF39E
S11333B04F8FBFF36F8F0124FDF794FC204603B0B9
S11333C0BDE8F08F4EF6045904F1240801206E463E
S11333D04FF0000B02AFCEF200094FF0805A00BF4D
S11333E0029900294DD0C00702D0304600F044FFB6
S11333F0FDF778FC00F060FAFDF749FC94F844000E
S1133400FF2808BF84F844B094F84500FF2808BF9B
S113341084F845B0FDF766FC3046394600F039FFC4
S113342060B12046FFF788FE00F0A0FAFDF72FFCFC
S1133430A56BFDF757FC35B31CE000BFFDF727FC77
S1133440A56BFDF74FFC2DB12046FFF775FE00F08C
S11334508DFA0FE00299404600F02EFD2046FFF75A
S11334606BFE00F083FA28B9C9F800A0BFF34F8FB0
S1133470BFF36F8FFDF70BFCA16B00200029AFD0C9
S113348085E7002498E7002498E74BF68C204BF25C
S11334909C624AF6FF73C0F20000C0F20002C0F260
S11334A0000340F28261FEF79BFF4BF68C204BF247
S11334B09C624CF22D23C0F20000C0F20002C0F264
S11334C0000340F28661FEF78BFF4BF68C204BF233
S11334D09C624AF65D63C0F20000C0F20002C0F2D2
S11334E0000340F28B61FEF77BFF10B538B1044650
S11334F0FDF7CDFBA46BFDF7F5FB204610BD4BF6A5
S11335008C204BF6B7224CF28403C0F20000C0F2C8
S11335100002C0F2000340F69B01FEF761FFD4D421
S1133520C0B14AF2180C0021C1F6FE7C0CEBC103B9
S11335305A68824203D001310A2904D0F6E70022F6
S11335404CF831205A6090F84610002918BF704793
S1133550FFF7C6B980B54BF68C204BF67E524BF67E
S11335603273C0F20000C0F20002C0F2000340F661
S1133570D401FEF735FFD4D4B0B500B3D1B14AF2CB
S1133580180E4FF0000CC1F6FE7E0022002300BF8F
S11335900EEB02046568A8420DD023B92368002B02
S11335A018BF644623460832502AF1D1002B18BFB5
S11335B0C3E90010B0BD2346C3E90010B0BD4BF60B
S11335C08C204AF6F8224CF28403C0F20000C0F2C8
S11335D00002C0F2000340F6C931FEF701FF70B5E6
S11335E015460E460446FDF752FB94F84400FF28A6
S11335F004BF002084F8440094F84500FF2804BF69
S1133600002084F84500FDF76DFBA06B28B904F198
S1133610240031462A4600F0BFFC2046BDE8704035
S1133620FFF78ABD2DE9F04786B0DDF83C900746E8
S11336300020B9F1000F049026D0109CA4B36020A0
S11336400590059860283FD105980E46DDF838A00E
S1133650204660219846154605F01AFD022084F89C
S11336605D0004A8C4F83090CDE900A03846314686
S11336702A464346029400F093FF204600F034F8B3
S1133680049806B0BDE8F0874BF675404BF6AF32B0
S11336904AF69043C0F20000C0F20002C0F20003F8
S11336A040F2F141FEF79CFE4BF675404BF6AF320B
S11336B04BF2FB33C0F20000C0F20002C0F2000380
S11336C040F2F241FEF78CFE4BF675404BF6AF32FA
S11336D04CF25953C0F20000C0F20002C0F20003E1
S11336E040F2FA41FEF77CFE2DE9F0470446FDF76F
S11336F0CEFA4AF28C00C1F6FE7001684AF26807FD
S113370001310160C1F6FE7739684AF2700A4AF263
S11337109806C1F6FE7AC1F6FE7651B1DAF80000D9
S113372000283DD13868E16AC06A884298BF3C608D
S113373036E03C600068012832D100257019FFF79B
S1133740CFFA1435642DF9D14AF24418C1F6FE7843
S11337504046FFF7C5FA4AF25819C1F6FE794846C1
S1133760FFF7BEFA4AF21810C1F6FE70FFF7B8FA76
S11337704AF27400C1F6FE70FFF7B2FA4AF2001082
S1133780C1F6FE70FFF7ACFA4AF23810C1F6FE70CB
S1133790C0F800804AF23C10C1F6FE70C0F80090F8
S11337A04AF26C00C1F6FE700168013101604AF210
S11337B0FC01C1F6FE71E06A0A68904288BF0860A5
S11337C000EB800006EB80004068221DA060816849
S11337D0E1604A608260E06A00EB800006EB8001F1
S11337E0616156F82010013146F82010FDF77AFA8D
S11337F0DAF8000078B13868E16AC06A88420AD20F
S11338004EF60450CEF200004FF080510160BFF339
S11338104F8FBFF36F8FBDE8F0872DE9F04F83B072
S113382007469000984615468946FEF739FFE0B1F1
S113383006466020FEF734FFA0B1DDE90CBA602132
S1133840044605F025FC384649462A464346266385
S1133850CDE900BA029400F0A3FE2046FFF744FF2E
S1133860012004E03046FFF73BF84FF0FF3003B08F
S1133870BDE8F08F10B5044690F85D00022808BF3B
S113388010BD012803D038B9206BFFF729F8204672
S1133890BDE81040FFF724B84BF675404BF29C226C
S11338A04BF6C333C0F20000C0F20002C0F20003C2
S11338B041F62E11FEF794FD4AF29000C1F6FE7017
S11338C001680131016070472DE9F04381B00E4673
S11338D04AF29401C1F6FE710D684AF23811C1F63C
S11338E0FE71D1F800804AF23C114AF26804C1F634
S11338F0FE71C1F6FE74D1F8009021680746081DD8
S1133900FFF725FA781C16D1AEB14AF20010C1F6C1
S1133910FE70D0E90012236801319A609368276829
S1133920FB60276804375F60236804339360226870
S11339300160506117E02068ED194560206800F1CE
S1133940040105D3484601B0BDE8F043FFF7E2B9EE
S11339504046FFF7DFF94AF22C10C1F6FE70016809
S11339608D4238BF056001B0BDE8F0832DE9F04712
S1133970FDF78DF94AF29000C1F6FE700168002946
S113398000F0AC80016801390160006828B10024AE
S1133990FDF7A8F92046BDE8F0874AF28C00C1F68D
S11339A0FE7000680028F2D04AF21810C1F6FE70CA
S11339B001684AF2141A4AF268090029C1F6FE7A2B
S11339C0C1F6FE7964D04AF2FC024AF2980300215F
S11339D0C1F6FE72C1F6FE734FF0010CC768FC68B5
S11339E0D4E90775A66ABD60E7696F60776804F17A
S11339F01805AF4201D1276A7760A1623768013F99
S1133A003760D4E902656769B560A6686E607D6851
S1133A10261DB54201D1E5687D6061613D68013DC7
S1133A203D60E76A1568AF4288BF176007EB8707F8
S1133A3003EB87077F68A760BD68E5606E60BE60C2
S1133A40E76A07EB870703EB8706666153F827608D
S1133A50013643F82760E76AD9F80060F66AB7428E
S1133A6088BFCAF800C00768002FB7D14AF23810DF
S1133A70C1F6FE700168096819B10068C068006881
S1133A8001E04FF0FF304AF22C11C1F6FE710860DC
S1133A904AF23418C1F6FE78D8F8006056B1012411
S1133AA000F02EF908B1CAF80040013EF8D1002018
S1133AB0C8F80000DAF8000000283FF468AFD9F82D
S1133AC000004EF60450CEF200004FF08051016029
S1133AD0BFF34F8F0124BFF36F8F59E74BF6754047
S1133AE04BF29D324CF29F03C0F20000C0F2000280
S1133AF0C0F2000340F68B71FEF772FC80B580B112
S1133B004AF29001C1F6FE710A6801320A6009683E
S1133B10012912D10021FFF7D7FEFFF727FF00B1DB
S1133B2080BD4EF60450CEF200004FF0805101608B
S1133B30BFF34F8FBFF36F8F80BD4BF675404BF6CD
S1133B403A724BF64B03C0F20000C0F20002C0F21E
S1133B50000340F68E11FEF743FCD4D480B54AF23C
S1133B609000C1F6FE70006830B14AF21410C1F63C
S1133B70FE700121016080BD4AF21410C1F6FE708E
S1133B8000214AF2FC0C0160C1F6FE7CDCF8001056
S1133B904AF2980301EB8102C1F6FE7353F8220046
S1133BA003EB820230B900BFB9B152F8140D0139E8
S1133BB00028F9D05068436802F10800834253603A
S1133BC001D1D3685360D8684AF26802C1F6FE7224
S1133BD01060CCF80010106880BD4BF675404AF6B2
S1133BE0C5324CF2C443C0F20000C0F20002C0F27D
S1133BF0000341F2FA31FEF7F3FB10B58AB044F248
S1133C004940C4F24C500024069005A804A903AA14
S1133C108DF81C40CDE90444FCF722FFDDE90320C4
S1133C20DDF814C0CDE9004044F23560C0F2000074
S1133C3006A90023CDF808C0FFF7F4FC4AF23011BE
S1133C40C1F6FE71086060B300F00BFD012811D0CD
S1133C50013026D14BF675404CF28B024BF6FD0336
S1133C60C0F20000C0F20002C0F2000340F6A961F5
S1133C70FEF7B6FB4AF22C11C1F6FE714FF0FF328B
S1133C80012080F310880A604AF27001C1F6FE71C7
S1133C9008604AF29400C1F6FE7000210160FCF74E
S1133CA0B5FF4CF67000C0F2000000680AB010BD09
S1133CB0F0B581B04AF28805C1F6FE752868E0B116
S1133CC04AF274064AF28C07C1F6FE76C1F6FE7714
S1133CD0FCF7DDFFF068C468201DFFF738F838688A
S1133CE001383860286801382860FCF7FBFF20465B
S1133CF0FFF7C0FD28680028EAD101B0F0BDD4D494
S1133D002DE9F0474AF29000C1F6FE70006848B110
S1133D104AF23410C1F6FE700168013101600020DE
S1133D20BDE8F0874AF29400C1F6FE7001684AF2D9
S1133D302C1C4A1CC1F6FE7C026022D34AF23810C5
S1133D40C1F6FE7001680968002940F09F804AF2BC
S1133D503C13C1F6FE7301681F68076019604AF2DC
S1133D604011C1F6FE710B6801330B6001680968EC
S1133D7019B10068C068006801E04FF0FF30CCF86A
S1133D800000DCF80000824201D2002074E04AF214
S1133D90381AC1F6FE7ADAF800004FF0000900681C
S1133DA0002864D04AF2FC0E4AF298044AF26808E9
S1133DB0C1F6FE7EC1F6FE74C1F6FE78002000BF97
S1133DC0DAF80050ED68EE68374657F8045FAA4207
S1133DD050D3D6E9021375698B60B168596069687C
S1133DE0B94201D1F1686960C6F8149029680139B3
S1133DF02960B56A85B1D6E907138B60F16959600A
S1133E00696806F11803994201D1316A6960C6F8FC
S1133E102890296801392960F56ADEF800108D427E
S1133E2005EB850188BFCEF8005004EB8101496899
S1133E30B1608B68F3605F608F60F16A01EB8101B0
S1133E4004EB8103736154F82130013344F82130C9
S1133E50F16AD8F80030DB6ADAF80050994288BF7A
S1133E60012029680029ABD14FF0FF3502E04FF063
S1133E70FF350020CCF800504AF21411C1F6FE714F
S1133E800968002918BF0120BDE8F0874BF675408A
S1133E904BF616224AF64F33C0F20000C0F200027D
S1133EA0C0F2000341F25F21FEF79AFA4AF294004D
S1133EB0C1F6FE700068704710B570B10C464AF246
S1133EC06801C1F6FE7109681831FEF723FF204628
S1133ED00121BDE81040FFF7F7BC4BF675404BF6E7
S1133EE0ED724BF66603C0F20000C0F20002C0F2AD
S1133EF000034FF4A451FEF773FA10B560B30446FF
S1133F004AF29000C1F6FE700068A8B34AF2680E47
S1133F10C1F6FE7EDEF800C041F00041CCF8181076
S1133F206168DEF80000C1618868DEF8003018625C
S1133F30DEF8003018334360DEF800001830886083
S1133F40DEF80000012184622068431C10462360CF
S1133F50BDE81040FFF7B8BC4BF675404AF6F25284
S1133F604BF66603C0F20000C0F20002C0F2000388
S1133F7041F29E41FEF734FA4BF675404AF6F2528E
S1133F804CF24623C0F20000C0F20002C0F200036B
S1133F9041F2A241FEF724FA10B550B34AF2680C7C
S1133FA0C1F6FE7C0346D0F804E0DCF80000002AE9
S1133FB0C0F81CE0DEF80800DCF800402062DCF801
S1133FC0004004F118044460DCF8000000F118001B
S1133FD0CEF80800DCF800008362186818BF4FF0C0
S1133FE0FF31441C084611461C60BDE81040FFF731
S1133FF06BBC4BF675404BF2AC324BF66603C0F229
S11340000000C0F20002C0F2000341F2BE41FEF71C
S1134010E7F980B5C068C068002870D0D0E90713FC
S1134020826A8B60C1695960536800F118018B4240
S113403001D1036A5360002383621368013B136058
S11340404AF29002C1F6FE7212688AB14AF2181C52
S1134050C1F6FE7CDCE900E2C26193680362596048
S113406091600EF10101C0F828C0CCF8001034E0D2
S1134070D0E9021342698B60816859605368011D5D
S11340808B4201D1C36853600023436113684AF231
S1134090FC0C013B1360C1F6FE7CC26ADCF8003004
S11340A09A4288BFCCF800204AF2980C02EB8202B4
S11340B0C1F6FE7C0CEB8202526882609368C36096
S11340C059609160C16A01EB81010CEB810242618C
S11340D05CF8212001324CF821204AF26801C1F633
S11340E0FE71C06A0968C96A884291BF00204AF219
S11340F01411C1F6FE71012088BF086080BD4BF623
S113410075404BF2CC324BF20B03C0F20000C0F20C
S11341100002C0F2000341F2F541FEF761F980B5F7
S11341204AF29002C1F6FE721268002A5FD0C26899
S113413041F00041002A016069D0D0E901CE036951
S1134140CCF808E04168CEF804105968814201D1E6
S1134150816859604FF0000CC0F810C0186801382D
S11341601860D2E902015369816090684860596817
S1134170101D814201D1D1685960C2F814C0196878
S11341804AF2FC0C01391960C1F6FE7CD16ADCF8F4
S11341900030994288BFCCF800104AF2980C01EB29
S11341A08101C1F6FE7C0CEB8101496891608B684A
S11341B0D36058608860D06A00EB80000CEB80010B
S11341C051615CF8201001314CF820104AF268016A
S11341D0C1F6FE71D06A0968C96A884298BF80BD79
S11341E04AF21410C1F6FE700121016080BD4BF645
S11341F075404BF2E0024CF24623C0F20000C0F2DC
S11342000002C0F2000341F24351FEF7E9F84BF615
S113421075404BF2E0024BF20B03C0F20000C0F217
S11342200002C0F2000341F24E51FEF7D9F810B576
S113423090B10446FCF72BFD4AF24010C1F6FE7023
S1134240006820604AF29400C1F6FE700068606065
S1134250BDE81040FCF746BD4BF675404BF2B0622A
S11342604BF20213C0F20000C0F20002C0F20003DD
S113427041F28651FEF7B4F84AF24011C1F6FE71DC
S1134280096801604AF29401C1F6FE71096841604F
S1134290704770B568B30D46D9B30446FCF7F7FC14
S11342A04AF2940EC1F6FE7EDEF8003029684A1CFC
S11342B016D04AF2401CC1F6FE7CD4E90002DCF8B8
S11342C00060864201D093420CD29A1A914209D9D5
S11342D0881A2860DCF800002060DEF800006060C6
S11342E0002402E0002001242860FCF7FBFC2046A7
S11342F070BD4BF675404BF68B524BF20213C0F275
S11343000000C0F20002C0F2000341F2A551FEF722
S113431067F84BF675404BF68B524BF2DE53C0F206
S11343200000C0F20002C0F2000341F2A651FEF701
S113433057F84AF21410C1F6FE700121016070476B
S11343404AF26800C1F6FE70006870474AF27000D5
S1134350C1F6FE70006850B14AF29000C1F6FE70DA
S1134360006800284FF0000008BF022070470120B9
S113437070474AF26801C1F6FE71086880690A68EC
S1134380D26A0968C2F105028A61704770B50028D3
S113439044D14AF29000C1F6FE700C4601681546FD
S11343A001310160FCF773FC4AF26806C1F6FE763F
S11343B03068806DB0B1FCF795FCFFF7D7FAFCF7D5
S11343C066FC3068856D2DB131680020002C08BF73
S11343D0681E88653068002180F85C10FCF782FC58
S11343E0284670BD3068012180F85C10FCF77AFC27
S11343F0002DE2D028460121FFF766FAFFF7B6FA4E
S11344000028DCD14EF60450CEF200004FF080516B
S11344100160BFF34F8FBFF36F8FD0E74BF675404A
S11344204CF241524BF20C13C0F20000C0F20002F5
S1134430C0F2000341F6C751FDF7D2FFF0B581B0D9
S1134440002800F07D80002940F08A801746054648
S1134450FCF7AEFCEFF31180102181F311880222E6
S113446095F85C1085F85C20AA6D012902F101021F
S1134470AA6561D1A96A002940F082804AF29001BC
S1134480C1F6FE71096881B14AF21811C1F6FE71D4
S1134490D1E9002305F11806EB619C6801322C6216
S11344A066609E60A9620A6034E0D5E902136A6915
S11344B08B60A96859605368291D8B4201D1EB6850
S11344C0536000236B6113684AF2FC0C013B1360D8
S11344D0C1F6FE7CEA6ADCF800309A424AF298039C
S11344E088BFCCF8002002EB8202C1F6FE7303EB16
S11344F082025268AA609468EC6061609160E96A23
S113450001EB810103EB81026A6153F8212001323E
S113451043F821204AF26802C1F6FE72E96A126881
S1134520D26A914208D90FB1012139604AF21411BB
S1134530C1F6FE7101220A6080F3118801B0F0BD5A
S11345404BF675404BF672024BF62923C0F200007D
S1134550C0F20002C0F200034FF4FE51FDF740FF29
S11345604BF675404BF672024BF2E533C0F2000095
S1134570C0F20002C0F2000341F6C171FDF730FF42
S11345804BF675404BF672024CF27123C0F20000F8
S1134590C0F20002C0F2000341F6EA71FDF720FF09
S11345A02DE9F0470A9F8246089C386B984669B10A
S11345B007F13403002600BF8D5D9D551DB10F2EFC
S11345C006F10106F8D1002187F84310052C21D209
S11345D000EB8200043820F00706DDF82490381D33
S11345E0FC62FEF788FB07F11800FEF784FBC4F1B8
S11345F00500396BB8613046524643463F617F62DD
S1134600FCF7EEFAB9F1000F386018BFC9F8007072
S1134610BDE8F0874BF675404BF216424BF2FE13A1
S1134620C0F20000C0F20002C0F2000340F2647164
S1134630FDF7D6FE4AF298044EF60455C1F6FE7410
S1134640CEF200054FF08056FFF732FB20680228B7
S113465022BF2E60BFF34F8FBFF36F8FFCF79CFB1D
S1134660F2E780B586B000F03BF84AF26C10C1F670
S1134670FE70006820B30020CDE9040005A804A959
S113468003AAFCF7FAF9DDE903200321DDF814C0DD
S1134690CDE9001044F25D704CF2E311C0F2000069
S11346A0C0F200010023CDF808C0FEF7BBFF4AF2B8
S11346B07011C1F6FE71086010B1012006B080BD12
S11346C04AF6AD404CF2AF224BF2EC53C0F200007C
S11346D0C0F20002C0F200034FF4A371FDF780FEA4
S11346E070B582B0FCF7D3FA4AF26C16C1F6FE76C6
S11346F0306868BB4AF28014C1F6FE742046FEF7A7
S1134700EFFA4AF29415C1F6FE752846FEF7E8FA68
S11347104AF27410C1F6FE7004604AF27810C1F6D1
S1134720FE704AF2F0124AF2A81305600025C1F6A1
S1134730FE72C1F6FE730A200C210095FEF777FB8A
S1134740306028B14AF61161C0F20001FEF714FF8F
S113475002B0BDE87040FCF7C5BAD4D484B04AF2C4
S113476074184AF26C15C1F6FE7801ACC1F6FE75F8
S11347704FF0000BEA4600BFD8F80000D0F80090D4
S1134780B9F1000F02D0C068066800E00026FFF708
S113479093F8204600F0AAF8019919B1FFF7E6F85A
S11347A02EE000BF0746B9F1000F08D0BE4206D87C
S11347B0FFF7DCF83046394600F0C3F820E0B9F1E1
S11347C0000F01D0002208E04AF27810C1F6FE7012
S11347D000680068B0FA80F042092868F11BFEF70F
S11347E0FEFEFFF7C3F858B94EF60450CEF20000AF
S11347F04FF080510160BFF34F8FBFF36F8F00BF45
S11348002868CDE902BBCDF804B000BF21460022E0
S1134810FEF7CCFC0028AFD0019800284CD4039EAE
S1134820706910B1301DFEF792FA504600F05EF840
S11348300199013908293FD80746DFE801F0050549
S11348402C1C3F05052C1C0096F82400029BB16922
S113485040F0010086F82400194430463A4600F03E
S1134860A8F848B396F8240041071BD400F0FA00D6
S113487086F824001DE096F8240040F00101029817
S113488086F82410B06108B3C11930463A463B4655
S113489000F08FF810E096F8240000F0FE0086F88F
S11348A0240009E00298B1693A460144304600F018
S11348B069F8316A304688472868A7E796F82400E3
S11348C08107EAD43046FEF70BF8F5E74AF6AD4027
S11348D04CF251124CF27253C0F20000C0F20002CA
S11348E0C0F200034FF48261FDF77AFDF0B581B0A8
S11348F00446FFF7DBFA4AF27C16C1F6FE7631680D
S1134900054688420ED24AF27417C1F6FE7700BFFC
S11349103868016841B1C0684FF0FF31006800F0A9
S113492010F8F5E7002007E04AF27811C1F6FE71AD
S11349300A68086001203A6020602846356001B0AA
S1134940F0BD70B54AF27412C1F6FE7212680646E2
S1134950D2680D46D468201DFEF7F9F994F82400B6
S1134960410704D400F0FA0084F8240004E020464F
S113497031462A4600F006F8216A2046BDE8704018
S11349800847D4D470B50546806914460E460144E0
S1134990284600BF334600F00CF848B1A869296ADC
S11349A0064428468847A869224681192846F1E723
S11349B070BD8C46014641F804CF9445006108D986
S11349C04AF274109A42C1F6FE700AD29C4508D38A
S11349D00DE08069D21A824209D24AF27810C1F6F7
S11349E0FE7080B50068FEF795F9002080BD0120B7
S11349F07047D4D42DE9F04381B04AF29848C1F607
S1134A00FE78D8F8000008B1012036E04AF29C4252
S1134A10C1F6FE720A200A21FEF758FAC8F800000F
S1134A2070B34AF60C31C0F20001FEF7A5FD4AF25C
S1134A30E449C1F6FE794846FEF752F94AF268267F
S1134A400027C1F6FE760024351928466F62FEF76A
S1134A5052F948462946ED60FEF75CF93834B4F55E
S1134A600C7FF1D14AF2F841D8F80000C1F6FE718A
S1134A700A220A60002818BF012001B0BDE8F083B3
S1134A804BF6F5304BF6CE224CF2ED03C0F20000AB
S1134A90C0F20002C0F200037421FDF7A1FCF0B5DE
S1134AA081B04228064698BF422610F1020F38BF53
S1134AB0023616F0030207D0053A964201D90024C3
S1134AC00AE026F00302161D10F1030F4FF0000454
S1134AD098BF16F10B0F02D9204601B0F0BD16F1B4
S1134AE00A05F9D44AF29840C1F6FE70006800281D
S1134AF0F2D0FEF735FC0128E1D1FCF7C8F84AF200
S1134B00E447C1F6FE77F868C4682046FEF71FF94B
S1134B10FCF7E8F84AF2F841C1F6FE7138680A6811
S1134B20824288BF0860606A98B9002ED4D02846B3
S1134B30FDF7B6FD606240B10460606A00210A308E
S1134B40C4E90906C4E90B11C6E7204600F011F8D0
S1134B50B5E74BF6F5304BF637224BF20F23C0F294
S1134B600000C0F20002C0F200034FF4A371FDF78D
S1134B7037FC10B50446406A10B10A38FDF7B0FEA0
S1134B800020C4E90900FCF782F820694AF2E441F4
S1134B90C1F6FE71884214D04AF2E440C1F6FE70B8
S1134BA02146FEF7ABF8FCF79DF84AF29840C1F6AF
S1134BB0FE700068002100220023BDE81040FEF7CB
S1134BC0A5B9BDE81040FCF78DB82DE9F04387B0D6
S1134BD0466AF189B1F5807F40F08980318A0829DD
S1134BE040F08580B17C062940F08180F17C042965
S1134BF07DD14AF2FC44C1F6FE74D0F8309020789E
S1134C00F769D6F82680012806970DD14AF200509C
S1134C1040F23401C1F6FE70C1F6FE71FFF739FBB4
S1134C20012804BF00202070354615F8160FC00770
S1134C305DD138BAB0F1FE4F4FF0000058DAB9F147
S1134C40000F55D0D9F8000087421DD120780028E4
S1134C504DD1012020704846394600F084F8FFF712
S1134C6025F94AF20851C1F6FE7108604AF2005073
S1134C70C1F6FE70FFF7DBFA40F23400C1F6FE70B5
S1134C8042F21071016032E099F84010C9062ED545
S1134C90B18AB1F5007F25D0B1F5807F27D1804559
S1134CA029D109F1380840462946062204F048FA79
S1134CB0E8B1284639464A4600F03EF94FF4007000
S1134CC0B082A8882968B0843162C6F82670D8F802
S1134CD000002860B8F80400A880D9F80000F0614A
S1134CE0022005E0304649463A4600F0A5F9002086
S1134CF007B0BDE8F0834745F9D1D9F804107840EE
S1134D0001424FF00000F3D120364CF6B601ADF865
S1134D1014000490C0F200013046062204F010FA98
S1134D2030B104A93046062204F00AFA0028DED184
S1134D3009F138002946062204F002FA0028D6D0E8
S1134D400020019006A80DF10A0101AA00F03EF826
S1134D500128CCD101984845C9D1069928464A462C
S1134D6000F0EAF8C3E770B582B0054690F8400059
S1134D70400728D4286830B30E462A200021FFF7C4
S1134D808EFE00B3466105630446E86EE062204689
S1134D9000F034FA00F0A3FF40B1E86E98B1C368A4
S1134DA02146012202B0BDE87040184702208DF868
S1134DB0000068464FF0FF31019400F01AFB10B96F
S1134DC02046FFF7D6FE02B070BDD4D42DE9F041E1
S1134DD0002900F080800646002800F08C80904670
S1134DE0002A00F098800020C8F8000037680D46BB
S1134DF0384601F05FFB0446384601F0A1F950B192
S1134E00002C55D0A08FA880A06B2860C8F8004063
S1134E100120BDE8F081384601F08BF9A8B138468D
S1134E20294601F05FFA002001F01AFB00283FD068
S1134E30014600BF91F84000400719D5002001F059
S1134E401FFB01460028F5D132E0B7F17F4F12D3A2
S1134E504CF6B600C0F2000081880068A980286082
S1134E60384601F057FB0028D2D0C8F80000CFE73D
S1134E70C8F80010CCE7306801F04CFB18B1316879
S1134E80C8F8000006E0402001F01AFCC8F8000051
S1134E9070B1816861B14AF20C520020C1F6FE7211
S1134EA013588B4207D010306028F9D100200FE04E
S1134EB00220BDE8F0811044C27A42B10289AA807E
S1134EC042682A60C068C8F80000012000E002209F
S1134ED03160BDE8F0814AF6D9404CF297524BF666
S1134EE0C363C0F20000C0F20002C0F2000340F24B
S1134EF07A31FDF775FA4AF6D9404CF297524AF6E0
S1134F00A253C0F20000C0F20002C0F2000340F25B
S1134F107B31FDF765FA4AF6D9404CF297524CF2D0
S1134F201313C0F20000C0F20002C0F200034FF4F9
S1134F305F71FDF755FAD4D42DE9F04F83B00546DF
S1134F4008461446029101F0E5FA002870D04AF2AE
S1134F500C5B0094FF264FF0FF304FF00008C1F6C1
S1134F60FE7B00274FF0FF390024019085B10BEB45
S1134F70080A0AF104002946062204F0E1F85BF865
S1134F800810029A914209D10028A14649D00EE0A6
S1134F905BF808000299884213D000E078B10BEB6B
S1134FA00800807AF6B2B0423CBF2746064608F1B4
S1134FB01008B8F1600F04F10104D7D102E00194A4
S1134FC0F5E7A146019E002E0DD4B9F1000F0FD4D0
S1134FD00BEB09104FEA091100224BF80120C0E93C
S1134FE00122C26004E0B9F1000F58BF4F463E46AB
S1134FF0029930014BF800105DB1A8880BEB061143
S11350000881286848604FF4CB7048810098C860D4
S11350100EE0B9F1FF3F0BDC0BEB061005214181DB
S113502006E04FF4CB70AAF80A000098CAF80C0006
S113503003B0BDE8F08FD4D4B0B582B00B46D0F83D
S113504026101D681446A9420ED04AF20C520021C3
S1135050C1F6FE725558A54203D01031602908D01C
S1135060F8E71144C97A21B1163021461A46FFF7F0
S113507063FF4AF28865C1F6FE752868D8B100F06E
S1135080CFFC142817D12868416AD1F81A108C4231
S113509011D101218DF800100190684600210024EF
S11350A000F0A7F9012802D02868FFF762FD00206C
S11350B02C6000F093FD02B0B0BDD4D480B5416A39
S11350C0006B8A89082A02D0B2F5C16F1ED1D1F8CB
S11350D01A10D0E900234A401A4201D0002080BDB2
S11350E04AF20C5C0022C1F6FE7C00BF5CF8023080
S11350F08B4203D01032602A04D0F7E76244D27A9C
S1135100002AEBD1FFF72FFE012080BD4AF6D940DB
S11351104BF658224AF62953C0F20000C0F20002AE
S1135120C0F200034FF40371FDF75AF9D0B12DE931
S1135130F0414AF20C5780460D460026C1F6FE7730
S1135140B859A84206D1BC19201D4146062203F0D5
S1135150F7FF18B11036602EF2D101E09620A0724C
S1135160BDE8F0417047D4D4F0B581B04AF20C5593
S11351700024C1F6FE750026AF19B87A58B1F97A41
S1135180421EBA7209B1042802D8386800F02BF81C
S1135190B87A00B93C601036602EEDD1FEF786FE79
S11351A04AF20856C1F6FE763168044621B1601A07
S11351B044F62161884214D34BF2B020C1F6FE704C
S11351C0056800BF65B195F84000C10606D54007E3
S11351D004D4296811B12846FFF7C5FD2D6FF1E706
S11351E0346001B0F0BD10B5044601F093F920B16C
S11351F02146BDE81040FFF7B6BD10BDB0B518B3E9
S11352000446806A29282FD9206BE8B3656A4CF6D6
S11352107801C0F200012846262203F03DFF206BEE
S1135220816BC5F80610808F6881206B816BC5F88F
S11352301610808F6883206B0068E8616069C5F888
S113524026002A20A062B0BD4AF6D9404BF6E822D7
S11352504BF22B43C0F20000C0F20002C0F2000384
S113526040F25951FDF7BCF84AF6D9404BF6E82212
S11352704CF20303C0F20000C0F20002C0F20003CB
S113528040F25A51FDF7ACF84AF6D9404BF6E82201
S11352904BF2C563C0F20000C0F20002C0F200038A
S11352A040F25B51FDF79CF880B5A8B14AF20C5C62
S11352B04FF0000EC1F6FE7C002300BF0CEB03028E
S11352C0D1681033814204BFC2E900EEC2E902EEA4
S11352D0602B08BF80BDF1E74AF20C50C1F6FE70A6
S11352E0602103F0D5FE80BD80B54AF26C50C1F652
S11352F0FE704FF48E7103F0CBFE80BD70B5044692
S1135300806A29282AD9656A95F8220008284FF06E
S1135310000018BF70BDD5F81A10D5F81E2085F806
S11353202200C5F81E104021A8822883204605F1DA
S11353300E06C5F81A20A97500F072FB024600207B
S1135340314600F063FEC04300BA000C2883A16A12
S11353502846012200F084FD022070BD4BF2494032
S11353604AF6D5624CF2A953C0F20000C0F2000222
S1135370C0F200035821FDF733F84AF29460C1F6F5
S1135380FE700068704710B5044690F8400040F085
S1135390100084F840000020FBF76FF994F84000F7
S11353A0400748BF10BD42F21070BDE8104000F045
S11353B051BC10B582B00446007F002100F0FE000D
S11353C0207700208DF800006846019400F011F861
S11353D0217F012802D101F0FD0007E041F0020025
S11353E04AF29861C1F6FE7101220A60207702B088
S11353F010BD70B504464BF25820C1F6FE70027819
S113540020780D4672B1072810D10120012600F042
S11354104BFC4AF28C60C1F6FE700068FEF765F83A
S113542010B903E010B10026304670BD00F057FCFF
S1135430421E4AF28C60C1F6FE70006818BF2A460C
S113544021460023BDE87040FDF760BD2DE9F0431F
S113545083B04AF29C68C1F6FE7889460A9E0746E4
S1135460002041461C461546FBF7F7FD4AF2C4618D
S1135470C1F6FE7140463A464B46CDE900540296C9
S113548000F080FF03B0BDE8F04300F000B8B0B511
S113549084B000F0D9FF00284CD000F0A3FC4AF2FD
S11354A080724AF238730024C1F6FE72C1F6FE73AC
S11354B00F2008210094FDF7BAFC4AF28C65C1F66E
S11354C0FE75286098B34BF6A041C0F20001FEF7C8
S11354D053F8FFF78FFA012824D101F00DF94AF6A9
S11354E05800C1F6FE7003214AF2F875CDE90010A8
S11354F045F255504BF23921C1F6FE75C0F2000059
S1135500C0F200014FF4207200230295FEF78AF8DE
S113551004464AF29460C1F6FE700460002C18BF81
S1135520012404E02868FDF7FBFF00242C602046DA
S113553004B0B0BD4AF666704BF60F124BF64573D5
S1135540C0F20000C0F20002C0F2000340F2CF310A
S1135550FCF746FF8AB040F6B83000F090FB4BF2FF
S1135560B420C1F6FE70046824B12046FFF721FF81
S1135570646AF9E74FF47A7000F057FB00200025C5
S113558000F02CFBFFF7B0FE4BF258204AF28C6778
S11355904AF29869C1F6FE700121C1F6FE7708ACA3
S11355A04FF0FF08C1F6FE790DF1080A017000BF43
S11355B000F074FA00F046FA3968024608462146BB
S11355C0FDF7F4FD80B19DF820000B2860D8DFE8DA
S11355D000F0061A0E545F575F16285F315B099876
S11355E000F088FB54E000BF8DF8208050E009995A
S11355F0C86A00284CD0C3680122984748E00120BB
S113560000F052FB44E0099E002E41D0F06A20B124
S1135610306B10B1B06A0E285AD23046FFF7A9FA9F
S113562036E0099E304602F005FB88B3306840F04E
S113563004001DE0099E307AC0074FF018008DF871
S1135640080006D1B06A022100BA8DF8091004904E
S1135650B562308F514600BA000CADF80A003046EE
S113566018220023358701F0ADF9306840F01000AE
S11356703060304601F020FC0AE0FFF775FD07E0DA
S1135680099803F0F6FB03E0099801F08FFA00BFD4
S1135690D9F8000000283FF48BAFC9F8005000F09F
S11356A0D3FE00283FF484AF064600BF307F800756
S11356B006D5304600F01EFB307F00F0FD00307749
S11356C0304600F0C7FE064600283FF471AFEDE710
S11356D0D6F824B0BBF80C10082918D04DF6865221
S11356E0914214D0B1F5C16F97D12A2895D3304691
S11356F0FFF76BFA0246042A51D0032AC8D0022AC3
S11357007FF48BAF3046012100F01CF9C0E722285A
S1135710FFF483AF08297FF480AF9BF80E103C227E
S113572002EA81020E38904228BF142AFFF475AFB2
S11357309BF81700314601905846009200F008FD8E
S113574002469BF80E00716A012A01F8060CD2D1B8
S1135750BBF80C000121082809D10098152806D3AC
S1135760304600F09BFD014600283FF456AF019AF5
S1135770112A0CD1042912D0112A41D0062A36D07C
S1135780012A7FF44AAF3046FFF7B8FDB2E730464E
S1135790009100F0A4FFDDE9001201281AD1BBF842
S11357A00C00082808D04DF6865188423FF435AFE6
S11357B0B0F5C16F7FF431AF4AF28861C1F6FE7172
S11357C0086800287FF429AF4FF4FA600E6000F0F7
S11357D018FA5DE7BBF80C000828CBD1DBF81A10E7
S11357E00BF10600FFF7A2FCDDE90012C2E7304628
S11357F0009102F021F9009A01283FF449AF7AE7B9
S1135800706A4DF686518289C38C8A424FF02A0110
S11358101BBA029508BF3E21082A4FEA134C09D14E
S1135820038A6FF013021BBA02EB1343634501D2E0
S1135830002260E7B36A00228B4228BFBCF1080F44
S1135840FFF459AF5B1AACF10802934284BF1144D0
S1135850B162418C5246B186D0F81A107161818CC4
S1135860304603F00EFB012801D1032243E70298DE
S11358700022012808BF04223DE780B582B08DF8DC
S113588000000020019068460021FFF7B2FD02B03D
S113589080BD4BF25820C1F6FE700078704790B17D
S11358A010B50446808941BAB1F5C06F48D9B0F546
S11358B0C16F01D0082843D12046002100F00AFE20
S11358C018B1012010BD002070474CF6B600C0F29C
S11358D000002146062203F033FC0028F1D04CF6E8
S11358E09E00C0F200002146062203F029FC38B3D2
S11358F04CF6A400C0F200002146062203F020FC6E
S1135900F0B14CF6AA00C0F200002146062203F0D2
S113591017FCA8B14CF6B000C0F2000021460622E4
S113592003F00EFC60B12078012809D1607838B901
S1135930A0785E2804D194F90300B0F1FF3FC0DCE5
S1135940002010BD2DE9F04385B006460446476AA1
S113595056F8300F88460021029190B1B989D0F8E9
S11359606C90082918D1D7F81E000DF10E0502908D
S113597002A829463246FFF729FA012818BFBD1D9F
S11359800BE0B88908282DD1D7F81E0000F0C2FD1D
S113599000283060E2D125E0BD1DA888B8802868C1
S11359A038603068818F7981806BC7F8060000F019
S11359B096F9012806D1D9F80C30484621464246CA
S11359C098470FE0B8F1000F0FD002208DF80000C7
S11359D068464FF0FF310194FFF70BFD10B92046E4
S11359E0FFF7C7F805B0BDE8F0834AF666704CF2DD
S11359F0C5224BF62513C0F20000C0F20002C0F22B
S1135A00000340F62911FCF7EBFC10B50446002016
S1135A1000F026FD18B1A18881872168816310BD3B
S1135A20406A4DF68651808988424FF0140008BFC1
S1135A302820704720B1007AC0071CBF2820704777
S1135A40142070474BF25C20C1F6FE700278C068E7
S1135A5042F21071884238BF0146D0074BF2B020A1
S1135A60C1F6FE70006808BF42F2107148B190F8A8
S1135A704820D20703D0426D8A4238BF1146006FD6
S1135A80F4E74BF27022C1F6FE72D06812788842B5
S1135A9028BF0846D20708BF08467047B0B54BF286
S1135AA05C20C1F6FE7000F071F810B10320FFF71E
S1135AB0E4FE4BF28424C1F6FE74204600F066F83E
S1135AC068B14AF28865C1F6FE75286838B1217854
S1135AD001F0FE012170FFF74CF8002028604BF222
S1135AE0B020C1F6FE7004682CB104F1480000F047
S1135AF04DF8246FF8E74AF28C60C1F6FE70006836
S1135B00FDF7F3FC4BF27024C1F6FE740546204603
S1135B1000F03CF805B190B1B5FA85F0400901F008
S1135B2069FC0546201DFEF782FB2078012100F068
S1135B30FC00E560002D08BF03210844207000200C
S1135B4001F00CFE002001F018FE4BF29825C1F67E
S1135B50FE75286800B1B0BD4BF29C20C1F6FE7002
S1135B6000F014F80028F6D04BF2B420C1F6FE7011
S1135B700468012044B1217FC90703D12046FFF7FF
S1135B8018FC0020646AF5E72860B0BD70B50178A0
S1135B900446C8070FD0880704F1040509D404F1AA
S1135BA00C012846FEF775FB217810B141F0020183
S1135BB02170880701D4002070BD26692846FEF7AD
S1135BC036FB2078012200F0FC01E660002E4FF045
S1135BD0010008BF03221144217070BD4BF28421DF
S1135BE0C1F6FE710A78002818BF012002F0FE02F7
S1135BF01044087070474BF29821C1F6FE7108609A
S1135C007047B0B54BF28425C1F6FE750446281DD5
S1135C10FEF70DFB2878012100F0FC00EC60002C5D
S1135C2008BF032108442870B0BDB0B54BF27025FD
S1135C30C1F6FE7504462861281DFEF7F8FA287897
S1135C40012100F0FC00EC60002C08BF0321084493
S1135C502870B0BDB0B54BF25C25C1F6FE750446A4
S1135C602861281DFEF7E3FA2878012100F0FC00E2
S1135C70EC60002C08BF032108442870B0BDB0B507
S1135C804BF29C25C1F6FE7504462861281DFEF7DB
S1135C90CEFA2878012100F0FC00EC60002C08BF4B
S1135CA0032108442870B0BD4BF27021C1F6FE7187
S1135CB00A78002802F0FC0342F0030208BF5A1CD1
S1135CC00A7070474BF25C21C1F6FE710A78002815
S1135CD018BF012002F0FE0210440870704710B58E
S1135CE0FEF72EFB0446FFF748FB201AB0FA80F0BB
S1135CF0400910BDF0B581B0002853D00746806834
S1135D0000285FD00020FFF7DDFF384600F0A8FB35
S1135D10D8B1054695F8400000F0EF01020785F878
S1135D20401005D400F0E700083085F8400002E098
S1135D300120FAF7A2FC2846FFF7B6FA38462946AE
S1135D4000F09EFB05460028E4D1B9683846884730
S1135D50012821D1387F40F001003877384600F01F
S1135D607FFBB8B1054600BF95F84000400707D453
S1135D7005F11C001CC829461CC190E85C005CC1EC
S1135D802846FFF700FB3846294600F079FB054614
S1135D900028E9D101B0F0BD002001B0BDE8F04019
S1135DA0FFF729BF4BF674704CF2BA024BF2F4536E
S1135DB0C0F20000C0F20002C0F2000340F237312A
S1135DC0FCF70EFB4BF674704CF2BA024AF61663FB
S1135DD0C0F20000C0F20002C0F200034FF44E71A2
S1135DE0FCF7FEFA80B5FFF754FD48B94AF28C601F
S1135DF0C1F6FE70006898B9FFF7BFFA00BB80BD1A
S1135E004BF674704AF6E7624BF22213C0F20000BC
S1135E10C0F20002C0F2000340F2E731FCF7E0FAFE
S1135E204BF674704AF6E7624BF2A923C0F2000005
S1135E30C0F20002C0F200034FF47A71FCF7D0FA0A
S1135E404BF674704AF6E7624BF25213C0F200004C
S1135E50C0F20002C0F2000340F2E931FCF7C0FADC
S1135E60F0B587B00E46044668461C21154603F07B
S1135E700FF9A089082804D04DF68651884240F0D5
S1135E80B5800828049466D16A462046314600F05D
S1135E9035FA10B1BDF80C005FE09DF80E104A1EF3
S1135EA0022A0FD3062918D0112926D1BDF81A00C9
S1135EB0082850D30198163086424CD3082002900B
S1135EC065B330E0BDF81A00082844D301981630B1
S1135ED0864240D30820029015E0BDF81A00142829
S1135EE039D301982230864235D30598007B502857
S1135EF031D33C2303EA9000EDE73A2944F2213000
S1135F002BD1009B4BB33DB1022A14D311290AD0E3
S1135F1006290AD110200FE0112902D10598C08862
S1135F2060B301250BE0062006E03A294FF0000596
S1135F3005D1009818B10220059900250D52BDF82D
S1135F401A20BDF80800904205D8019840F2DC51AF
S1135F50091A914203D241F2342007B0F0BD9DF8F2
S1135F600E60771E012F04D8204400F10E0100209A
S1135F700FE0009820B1BDF80C000DE00020ECE724
S1135F80049902F108039019ADF80C001A3180B29B
S1135F901A4600F03BF8C04301044FF000010246EA
S1135FA004BF4FF0FF314FF0FF32112E18BF0246ED
S1135FB0002D18BF0A4610BA4FEA104101D0084616
S1135FC0CBE7022F4FF6FF700CD3112E03D0062E11
S1135FD003D1102207E0062205E03A2EBDD1009A33
S1135FE0002ABAD00222059B9952B6E74BF6747088
S1135FF04AF6B5724BF29A43C0F20000C0F20002B6
S1136000C0F2000340F24E41FCF7EAF92DE9F047F3
S113601011F0010701F0030308BF40BA4FF0000C70
S11360203AB137B18E461EF8017B013A4FEA072C8C
